{"abi":[{"type":"constructor","inputs":[],"stateMutability":"nonpayable"},{"type":"function","name":"executeArb","inputs":[{"name":"dexA","type":"address","internalType":"address"},{"name":"dexB","type":"address","internalType":"address"},{"name":"token","type":"address","internalType":"address"},{"name":"amount","type":"uint256","internalType":"uint256"}],"outputs":[],"stateMutability":"nonpayable"},{"type":"function","name":"owner","inputs":[],"outputs":[{"name":"","type":"address","internalType":"address"}],"stateMutability":"view"},{"type":"function","name":"withdraw","inputs":[],"outputs":[],"stateMutability":"nonpayable"}],"bytecode":{"object":"0x6080604052348015600e575f5ffd5b50335f5f6101000a81548173ffffffffffffffffffffffffffffffffffffffff021916908373ffffffffffffffffffffffffffffffffffffffff16021790555061026a8061005b5f395ff3fe608060405234801561000f575f5ffd5b506004361061003f575f3560e01c80633ccfd60b146100435780637cee6e911461004d5780638da5cb5b14610069575b5f5ffd5b61004b610087565b005b610067600480360381019061006291906101a8565b6100ed565b005b6100716100f3565b60405161007e919061021b565b60405180910390f35b5f5f9054906101000a900473ffffffffffffffffffffffffffffffffffffffff1673ffffffffffffffffffffffffffffffffffffffff166108fc4790811502906040515f60405180830381858888f193505050501580156100ea573d5f5f3e3d5ffd5b50565b50505050565b5f5f9054906101000a900473ffffffffffffffffffffffffffffffffffffffff1681565b5f5ffd5b5f73ffffffffffffffffffffffffffffffffffffffff82169050919050565b5f6101448261011b565b9050919050565b6101548161013a565b811461015e575f5ffd5b50565b5f8135905061016f8161014b565b92915050565b5f819050919050565b61018781610175565b8114610191575f5ffd5b50565b5f813590506101a28161017e565b92915050565b5f5f5f5f608085870312156101c0576101bf610117565b5b5f6101cd87828801610161565b94505060206101de87828801610161565b93505060406101ef87828801610161565b925050606061020087828801610194565b91505092959194509250565b6102158161013a565b82525050565b5f60208201905061022e5f83018461020c565b9291505056fea2646970667358221220044a16ddd5352d335203f998ac0b5cf39eb11805c054920a8f26299ebf18743964736f6c63430008210033","linkReferences":{}},"methodIdentifiers":{"executeArb(address,address,address,uint256)":"7cee6e91","owner()":"8da5cb5b","withdraw()":"3ccfd60b"},"id":0}